{
  "contractName": "SolnSquareVerifier",
  "abi": [
    {
      "inputs": [
        {
          "internalType": "address",
          "name": "contractAddress",
          "type": "address"
        }
      ],
      "payable": false,
      "stateMutability": "nonpayable",
      "type": "constructor"
    },
    {
      "anonymous": false,
      "inputs": [
        {
          "indexed": true,
          "internalType": "address",
          "name": "owner",
          "type": "address"
        },
        {
          "indexed": true,
          "internalType": "address",
          "name": "approved",
          "type": "address"
        },
        {
          "indexed": true,
          "internalType": "uint256",
          "name": "tokenId",
          "type": "uint256"
        }
      ],
      "name": "Approval",
      "type": "event"
    },
    {
      "anonymous": false,
      "inputs": [
        {
          "indexed": true,
          "internalType": "address",
          "name": "owner",
          "type": "address"
        },
        {
          "indexed": true,
          "internalType": "address",
          "name": "operator",
          "type": "address"
        },
        {
          "indexed": false,
          "internalType": "bool",
          "name": "approved",
          "type": "bool"
        }
      ],
      "name": "ApprovalForAll",
      "type": "event"
    },
    {
      "anonymous": false,
      "inputs": [
        {
          "indexed": false,
          "internalType": "address",
          "name": "_theOwner",
          "type": "address"
        }
      ],
      "name": "OwnerChanged",
      "type": "event"
    },
    {
      "anonymous": false,
      "inputs": [
        {
          "indexed": false,
          "internalType": "address",
          "name": "caller",
          "type": "address"
        }
      ],
      "name": "Paused",
      "type": "event"
    },
    {
      "anonymous": false,
      "inputs": [
        {
          "indexed": false,
          "internalType": "address",
          "name": "solution",
          "type": "address"
        }
      ],
      "name": "SolutionAdded",
      "type": "event"
    },
    {
      "anonymous": false,
      "inputs": [
        {
          "indexed": true,
          "internalType": "address",
          "name": "from",
          "type": "address"
        },
        {
          "indexed": true,
          "internalType": "address",
          "name": "to",
          "type": "address"
        },
        {
          "indexed": true,
          "internalType": "uint256",
          "name": "tokenId",
          "type": "uint256"
        }
      ],
      "name": "Transfer",
      "type": "event"
    },
    {
      "anonymous": false,
      "inputs": [
        {
          "indexed": false,
          "internalType": "address",
          "name": "caller",
          "type": "address"
        }
      ],
      "name": "UnPaused",
      "type": "event"
    },
    {
      "anonymous": false,
      "inputs": [
        {
          "indexed": false,
          "internalType": "string",
          "name": "s",
          "type": "string"
        }
      ],
      "name": "Verified",
      "type": "event"
    },
    {
      "constant": false,
      "inputs": [
        {
          "internalType": "bytes32",
          "name": "_myid",
          "type": "bytes32"
        },
        {
          "internalType": "string",
          "name": "_result",
          "type": "string"
        }
      ],
      "name": "__callback",
      "outputs": [],
      "payable": false,
      "stateMutability": "nonpayable",
      "type": "function"
    },
    {
      "constant": false,
      "inputs": [
        {
          "internalType": "bytes32",
          "name": "_myid",
          "type": "bytes32"
        },
        {
          "internalType": "string",
          "name": "_result",
          "type": "string"
        },
        {
          "internalType": "bytes",
          "name": "_proof",
          "type": "bytes"
        }
      ],
      "name": "__callback",
      "outputs": [],
      "payable": false,
      "stateMutability": "nonpayable",
      "type": "function"
    },
    {
      "constant": false,
      "inputs": [
        {
          "internalType": "address",
          "name": "to",
          "type": "address"
        },
        {
          "internalType": "uint256",
          "name": "tokenId",
          "type": "uint256"
        }
      ],
      "name": "approve",
      "outputs": [],
      "payable": false,
      "stateMutability": "nonpayable",
      "type": "function"
    },
    {
      "constant": true,
      "inputs": [
        {
          "internalType": "address",
          "name": "owner",
          "type": "address"
        }
      ],
      "name": "balanceOf",
      "outputs": [
        {
          "internalType": "uint256",
          "name": "",
          "type": "uint256"
        }
      ],
      "payable": false,
      "stateMutability": "view",
      "type": "function"
    },
    {
      "constant": false,
      "inputs": [],
      "name": "baseTokenURI",
      "outputs": [
        {
          "internalType": "string",
          "name": "",
          "type": "string"
        }
      ],
      "payable": false,
      "stateMutability": "nonpayable",
      "type": "function"
    },
    {
      "constant": true,
      "inputs": [
        {
          "internalType": "uint256",
          "name": "tokenId",
          "type": "uint256"
        }
      ],
      "name": "getApproved",
      "outputs": [
        {
          "internalType": "address",
          "name": "",
          "type": "address"
        }
      ],
      "payable": false,
      "stateMutability": "view",
      "type": "function"
    },
    {
      "constant": true,
      "inputs": [],
      "name": "getOwner",
      "outputs": [
        {
          "internalType": "address",
          "name": "",
          "type": "address"
        }
      ],
      "payable": false,
      "stateMutability": "view",
      "type": "function"
    },
    {
      "constant": true,
      "inputs": [
        {
          "internalType": "address",
          "name": "owner",
          "type": "address"
        },
        {
          "internalType": "address",
          "name": "operator",
          "type": "address"
        }
      ],
      "name": "isApprovedForAll",
      "outputs": [
        {
          "internalType": "bool",
          "name": "",
          "type": "bool"
        }
      ],
      "payable": false,
      "stateMutability": "view",
      "type": "function"
    },
    {
      "constant": false,
      "inputs": [
        {
          "internalType": "address",
          "name": "to",
          "type": "address"
        },
        {
          "internalType": "uint256",
          "name": "tokenId",
          "type": "uint256"
        }
      ],
      "name": "mint",
      "outputs": [
        {
          "internalType": "bool",
          "name": "",
          "type": "bool"
        }
      ],
      "payable": false,
      "stateMutability": "nonpayable",
      "type": "function"
    },
    {
      "constant": false,
      "inputs": [],
      "name": "name",
      "outputs": [
        {
          "internalType": "string",
          "name": "",
          "type": "string"
        }
      ],
      "payable": false,
      "stateMutability": "nonpayable",
      "type": "function"
    },
    {
      "constant": true,
      "inputs": [
        {
          "internalType": "uint256",
          "name": "tokenId",
          "type": "uint256"
        }
      ],
      "name": "ownerOf",
      "outputs": [
        {
          "internalType": "address",
          "name": "",
          "type": "address"
        }
      ],
      "payable": false,
      "stateMutability": "view",
      "type": "function"
    },
    {
      "constant": false,
      "inputs": [
        {
          "internalType": "address",
          "name": "from",
          "type": "address"
        },
        {
          "internalType": "address",
          "name": "to",
          "type": "address"
        },
        {
          "internalType": "uint256",
          "name": "tokenId",
          "type": "uint256"
        }
      ],
      "name": "safeTransferFrom",
      "outputs": [],
      "payable": false,
      "stateMutability": "nonpayable",
      "type": "function"
    },
    {
      "constant": false,
      "inputs": [
        {
          "internalType": "address",
          "name": "from",
          "type": "address"
        },
        {
          "internalType": "address",
          "name": "to",
          "type": "address"
        },
        {
          "internalType": "uint256",
          "name": "tokenId",
          "type": "uint256"
        },
        {
          "internalType": "bytes",
          "name": "_data",
          "type": "bytes"
        }
      ],
      "name": "safeTransferFrom",
      "outputs": [],
      "payable": false,
      "stateMutability": "nonpayable",
      "type": "function"
    },
    {
      "constant": false,
      "inputs": [
        {
          "internalType": "address",
          "name": "to",
          "type": "address"
        },
        {
          "internalType": "bool",
          "name": "approved",
          "type": "bool"
        }
      ],
      "name": "setApprovalForAll",
      "outputs": [],
      "payable": false,
      "stateMutability": "nonpayable",
      "type": "function"
    },
    {
      "constant": false,
      "inputs": [
        {
          "internalType": "bool",
          "name": "_isPaused",
          "type": "bool"
        }
      ],
      "name": "setPaused",
      "outputs": [],
      "payable": false,
      "stateMutability": "nonpayable",
      "type": "function"
    },
    {
      "constant": true,
      "inputs": [
        {
          "internalType": "bytes4",
          "name": "interfaceId",
          "type": "bytes4"
        }
      ],
      "name": "supportsInterface",
      "outputs": [
        {
          "internalType": "bool",
          "name": "",
          "type": "bool"
        }
      ],
      "payable": false,
      "stateMutability": "view",
      "type": "function"
    },
    {
      "constant": false,
      "inputs": [],
      "name": "symbol",
      "outputs": [
        {
          "internalType": "string",
          "name": "",
          "type": "string"
        }
      ],
      "payable": false,
      "stateMutability": "nonpayable",
      "type": "function"
    },
    {
      "constant": true,
      "inputs": [
        {
          "internalType": "uint256",
          "name": "index",
          "type": "uint256"
        }
      ],
      "name": "tokenByIndex",
      "outputs": [
        {
          "internalType": "uint256",
          "name": "",
          "type": "uint256"
        }
      ],
      "payable": false,
      "stateMutability": "view",
      "type": "function"
    },
    {
      "constant": true,
      "inputs": [
        {
          "internalType": "address",
          "name": "owner",
          "type": "address"
        },
        {
          "internalType": "uint256",
          "name": "index",
          "type": "uint256"
        }
      ],
      "name": "tokenOfOwnerByIndex",
      "outputs": [
        {
          "internalType": "uint256",
          "name": "",
          "type": "uint256"
        }
      ],
      "payable": false,
      "stateMutability": "view",
      "type": "function"
    },
    {
      "constant": true,
      "inputs": [
        {
          "internalType": "uint256",
          "name": "tokenId",
          "type": "uint256"
        }
      ],
      "name": "tokenURI",
      "outputs": [
        {
          "internalType": "string",
          "name": "",
          "type": "string"
        }
      ],
      "payable": false,
      "stateMutability": "view",
      "type": "function"
    },
    {
      "constant": true,
      "inputs": [],
      "name": "totalSupply",
      "outputs": [
        {
          "internalType": "uint256",
          "name": "",
          "type": "uint256"
        }
      ],
      "payable": false,
      "stateMutability": "view",
      "type": "function"
    },
    {
      "constant": false,
      "inputs": [
        {
          "internalType": "address",
          "name": "from",
          "type": "address"
        },
        {
          "internalType": "address",
          "name": "to",
          "type": "address"
        },
        {
          "internalType": "uint256",
          "name": "tokenId",
          "type": "uint256"
        }
      ],
      "name": "transferFrom",
      "outputs": [],
      "payable": false,
      "stateMutability": "nonpayable",
      "type": "function"
    },
    {
      "constant": false,
      "inputs": [
        {
          "internalType": "address",
          "name": "newOwner",
          "type": "address"
        }
      ],
      "name": "transferOwnership",
      "outputs": [],
      "payable": false,
      "stateMutability": "nonpayable",
      "type": "function"
    },
    {
      "constant": false,
      "inputs": [
        {
          "internalType": "uint256[2]",
          "name": "a",
          "type": "uint256[2]"
        },
        {
          "internalType": "uint256[2]",
          "name": "a_p",
          "type": "uint256[2]"
        },
        {
          "internalType": "uint256[2][2]",
          "name": "b",
          "type": "uint256[2][2]"
        },
        {
          "internalType": "uint256[2]",
          "name": "b_p",
          "type": "uint256[2]"
        },
        {
          "internalType": "uint256[2]",
          "name": "c",
          "type": "uint256[2]"
        },
        {
          "internalType": "uint256[2]",
          "name": "c_p",
          "type": "uint256[2]"
        },
        {
          "internalType": "uint256[2]",
          "name": "h",
          "type": "uint256[2]"
        },
        {
          "internalType": "uint256[2]",
          "name": "k",
          "type": "uint256[2]"
        },
        {
          "internalType": "uint256[2]",
          "name": "input",
          "type": "uint256[2]"
        }
      ],
      "name": "verifyTx",
      "outputs": [
        {
          "internalType": "bool",
          "name": "r",
          "type": "bool"
        }
      ],
      "payable": false,
      "stateMutability": "nonpayable",
      "type": "function"
    },
    {
      "constant": false,
      "inputs": [
        {
          "internalType": "address",
          "name": "_address",
          "type": "address"
        },
        {
          "internalType": "uint256",
          "name": "_index",
          "type": "uint256"
        },
        {
          "internalType": "bytes32",
          "name": "solutionHash",
          "type": "bytes32"
        }
      ],
      "name": "addSolution",
      "outputs": [],
      "payable": false,
      "stateMutability": "nonpayable",
      "type": "function"
    },
    {
      "constant": false,
      "inputs": [
        {
          "internalType": "address",
          "name": "_address",
          "type": "address"
        },
        {
          "internalType": "uint256",
          "name": "_index",
          "type": "uint256"
        },
        {
          "internalType": "uint256[2]",
          "name": "a",
          "type": "uint256[2]"
        },
        {
          "internalType": "uint256[2]",
          "name": "a_p",
          "type": "uint256[2]"
        },
        {
          "internalType": "uint256[2][2]",
          "name": "b",
          "type": "uint256[2][2]"
        },
        {
          "internalType": "uint256[2]",
          "name": "b_p",
          "type": "uint256[2]"
        },
        {
          "internalType": "uint256[2]",
          "name": "c",
          "type": "uint256[2]"
        },
        {
          "internalType": "uint256[2]",
          "name": "c_p",
          "type": "uint256[2]"
        },
        {
          "internalType": "uint256[2]",
          "name": "h",
          "type": "uint256[2]"
        },
        {
          "internalType": "uint256[2]",
          "name": "k",
          "type": "uint256[2]"
        },
        {
          "internalType": "uint256[2]",
          "name": "input",
          "type": "uint256[2]"
        }
      ],
      "name": "mintNewNFT",
      "outputs": [
        {
          "internalType": "bool",
          "name": "",
          "type": "bool"
        }
      ],
      "payable": false,
      "stateMutability": "nonpayable",
      "type": "function"
    }
  ],
  "bytecode": "0x60806040523480156200001157600080fd5b506040516200510e3803806200510e833981810160405260208110156200003757600080fd5b81019080805190602001909291905050506040518060400160405280600a81526020017f524d43617073746f6e65000000000000000000000000000000000000000000008152506040518060400160405280600181526020017f43000000000000000000000000000000000000000000000000000000000000008152506040518060600160405280603f8152602001620050cf603f9139336000806101000a81548173ffffffffffffffffffffffffffffffffffffffff021916908373ffffffffffffffffffffffffffffffffffffffff1602179055507fa2ea9883a321a3e97b8266c2b078bfeec6d50c711ed71f874a90d500ae2eaf366000809054906101000a900473ffffffffffffffffffffffffffffffffffffffff16604051808273ffffffffffffffffffffffffffffffffffffffff1673ffffffffffffffffffffffffffffffffffffffff16815260200191505060405180910390a160008060146101000a81548160ff021916908315150217905550620001c46301ffc9a760e01b620002a260201b60201c565b620001dc6380ac58cd60e01b620002a260201b60201c565b620001f463780e9d6360e01b620002a260201b60201c565b82601090805190602001906200020c92919062000342565b5081601190805190602001906200022592919062000342565b5080601290805190602001906200023e92919062000342565b5062000257635b5e139f60e01b620002a260201b60201c565b50505080601460006101000a81548173ffffffffffffffffffffffffffffffffffffffff021916908373ffffffffffffffffffffffffffffffffffffffff16021790555050620003f1565b63ffffffff60e01b817bffffffffffffffffffffffffffffffffffffffffffffffffffffffff19161415620002d657600080fd5b6001806000837bffffffffffffffffffffffffffffffffffffffffffffffffffffffff19167bffffffffffffffffffffffffffffffffffffffffffffffffffffffff1916815260200190815260200160002060006101000a81548160ff02191690831515021790555050565b828054600181600116156101000203166002900490600052602060002090601f016020900481019282601f106200038557805160ff1916838001178555620003b6565b82800160010185558215620003b6579182015b82811115620003b557825182559160200191906001019062000398565b5b509050620003c59190620003c9565b5090565b620003ee91905b80821115620003ea576000816000905550600101620003d0565b5090565b90565b614cce80620004016000396000f3fe608060405234801561001057600080fd5b506004361061018e5760003560e01c80636352211e116100de578063b88d4fde11610097578063d547cfb711610071578063d547cfb714610e5b578063e985e9c514610ede578063f2fde38b14610f5a578063fe01ff6214610f9e5761018e565b8063b88d4fde146109c7578063c87b56dd14610acc578063c9831ab414610b735761018e565b80636352211e1461078c57806370a08231146107fa5780637469050214610852578063893d20e8146108aa57806395d89b41146108f4578063a22cb465146109775761018e565b806323b872dd1161014b57806338bbfa501161012557806338bbfa501461051a57806340c10f191461067657806342842e0e146106dc5780634f6ccce71461074a5761018e565b806323b872dd1461038557806327dc297e146103f35780632f745c59146104b85761018e565b806301ffc9a71461019357806306fdde03146101f8578063081812fc1461027b578063095ea7b3146102e957806316c38b3c1461033757806318160ddd14610367575b600080fd5b6101de600480360360208110156101a957600080fd5b8101908080357bffffffffffffffffffffffffffffffffffffffffffffffffffffffff1916906020019092919050505061125c565b604051808215151515815260200191505060405180910390f35b6102006112c4565b6040518080602001828103825283818151815260200191508051906020019080838360005b83811015610240578082015181840152602081019050610225565b50505050905090810190601f16801561026d5780820380516001836020036101000a031916815260200191505b509250505060405180910390f35b6102a76004803603602081101561029157600080fd5b8101908080359060200190929190505050611366565b604051808273ffffffffffffffffffffffffffffffffffffffff1673ffffffffffffffffffffffffffffffffffffffff16815260200191505060405180910390f35b610335600480360360408110156102ff57600080fd5b81019080803573ffffffffffffffffffffffffffffffffffffffff169060200190929190803590602001909291905050506113a3565b005b6103656004803603602081101561034d57600080fd5b81019080803515159060200190929190505050611657565b005b61036f611736565b6040518082815260200191505060405180910390f35b6103f16004803603606081101561039b57600080fd5b81019080803573ffffffffffffffffffffffffffffffffffffffff169060200190929190803573ffffffffffffffffffffffffffffffffffffffff16906020019092919080359060200190929190505050611743565b005b6104b66004803603604081101561040957600080fd5b81019080803590602001909291908035906020019064010000000081111561043057600080fd5b82018360208201111561044257600080fd5b8035906020019184600183028401116401000000008311171561046457600080fd5b91908080601f016020809104026020016040519081016040528093929190818152602001838380828437600081840152601f19601f820116905080830192505050505050509192919290505050611766565b005b610504600480360360408110156104ce57600080fd5b81019080803573ffffffffffffffffffffffffffffffffffffffff169060200190929190803590602001909291905050506117a9565b6040518082815260200191505060405180910390f35b6106746004803603606081101561053057600080fd5b81019080803590602001909291908035906020019064010000000081111561055757600080fd5b82018360208201111561056957600080fd5b8035906020019184600183028401116401000000008311171561058b57600080fd5b91908080601f016020809104026020016040519081016040528093929190818152602001838380828437600081840152601f19601f820116905080830192505050505050509192919290803590602001906401000000008111156105ee57600080fd5b82018360208201111561060057600080fd5b8035906020019184600183028401116401000000008311171561062257600080fd5b91908080601f016020809104026020016040519081016040528093929190818152602001838380828437600081840152601f19601f82011690508083019250505050505050919291929050505061181c565b005b6106c26004803603604081101561068c57600080fd5b81019080803573ffffffffffffffffffffffffffffffffffffffff16906020019092919080359060200190929190505050611821565b604051808215151515815260200191505060405180910390f35b610748600480360360608110156106f257600080fd5b81019080803573ffffffffffffffffffffffffffffffffffffffff169060200190929190803573ffffffffffffffffffffffffffffffffffffffff16906020019092919080359060200190929190505050611902565b005b6107766004803603602081101561076057600080fd5b8101908080359060200190929190505050611922565b6040518082815260200191505060405180910390f35b6107b8600480360360208110156107a257600080fd5b8101908080359060200190929190505050611956565b604051808273ffffffffffffffffffffffffffffffffffffffff1673ffffffffffffffffffffffffffffffffffffffff16815260200191505060405180910390f35b61083c6004803603602081101561081057600080fd5b81019080803573ffffffffffffffffffffffffffffffffffffffff169060200190929190505050611993565b6040518082815260200191505060405180910390f35b6108a86004803603606081101561086857600080fd5b81019080803573ffffffffffffffffffffffffffffffffffffffff16906020019092919080359060200190929190803590602001909291905050506119e3565b005b6108b2611add565b604051808273ffffffffffffffffffffffffffffffffffffffff1673ffffffffffffffffffffffffffffffffffffffff16815260200191505060405180910390f35b6108fc611b06565b6040518080602001828103825283818151815260200191508051906020019080838360005b8381101561093c578082015181840152602081019050610921565b50505050905090810190601f1680156109695780820380516001836020036101000a031916815260200191505b509250505060405180910390f35b6109c56004803603604081101561098d57600080fd5b81019080803573ffffffffffffffffffffffffffffffffffffffff169060200190929190803515159060200190929190505050611ba8565b005b610aca600480360360808110156109dd57600080fd5b81019080803573ffffffffffffffffffffffffffffffffffffffff169060200190929190803573ffffffffffffffffffffffffffffffffffffffff1690602001909291908035906020019092919080359060200190640100000000811115610a4457600080fd5b820183602082011115610a5657600080fd5b80359060200191846001830284011164010000000083111715610a7857600080fd5b91908080601f016020809104026020016040519081016040528093929190818152602001838380828437600081840152601f19601f820116905080830192505050505050509192919290505050611ce2565b005b610af860048036036020811015610ae257600080fd5b8101908080359060200190929190505050611d08565b6040518080602001828103825283818151815260200191508051906020019080838360005b83811015610b38578082015181840152602081019050610b1d565b50505050905090810190601f168015610b655780820380516001836020036101000a031916815260200191505b509250505060405180910390f35b610e4160048036036102c0811015610b8a57600080fd5b81019080803573ffffffffffffffffffffffffffffffffffffffff1690602001909291908035906020019092919080604001906002806020026040519081016040528092919082600260200280828437600081840152601f19601f820116905080830192505050505050919291929080604001906002806020026040519081016040528092919082600260200280828437600081840152601f19601f82011690508083019250505050505091929192908060800190600280602002604051908101604052809291906000905b82821015610caa578382604002016002806020026040519081016040528092919082600260200280828437600081840152601f19601f82011690508083019250505050505081526020019060010190610c56565b50505050919291929080604001906002806020026040519081016040528092919082600260200280828437600081840152601f19601f820116905080830192505050505050919291929080604001906002806020026040519081016040528092919082600260200280828437600081840152601f19601f820116905080830192505050505050919291929080604001906002806020026040519081016040528092919082600260200280828437600081840152601f19601f820116905080830192505050505050919291929080604001906002806020026040519081016040528092919082600260200280828437600081840152601f19601f820116905080830192505050505050919291929080604001906002806020026040519081016040528092919082600260200280828437600081840152601f19601f820116905080830192505050505050919291929080604001906002806020026040519081016040528092919082600260200280828437600081840152601f19601f8201169050808301925050505050509192919290505050611dcf565b604051808215151515815260200191505060405180910390f35b610e6361212c565b6040518080602001828103825283818151815260200191508051906020019080838360005b83811015610ea3578082015181840152602081019050610e88565b50505050905090810190601f168015610ed05780820380516001836020036101000a031916815260200191505b509250505060405180910390f35b610f4060048036036040811015610ef457600080fd5b81019080803573ffffffffffffffffffffffffffffffffffffffff169060200190929190803573ffffffffffffffffffffffffffffffffffffffff1690602001909291905050506121ce565b604051808215151515815260200191505060405180910390f35b610f9c60048036036020811015610f7057600080fd5b81019080803573ffffffffffffffffffffffffffffffffffffffff169060200190929190505050612262565b005b6112426004803603610280811015610fb557600080fd5b8101908080604001906002806020026040519081016040528092919082600260200280828437600081840152601f19601f820116905080830192505050505050919291929080604001906002806020026040519081016040528092919082600260200280828437600081840152601f19601f82011690508083019250505050505091929192908060800190600280602002604051908101604052809291906000905b828210156110ab578382604002016002806020026040519081016040528092919082600260200280828437600081840152601f19601f82011690508083019250505050505081526020019060010190611057565b50505050919291929080604001906002806020026040519081016040528092919082600260200280828437600081840152601f19601f820116905080830192505050505050919291929080604001906002806020026040519081016040528092919082600260200280828437600081840152601f19601f820116905080830192505050505050919291929080604001906002806020026040519081016040528092919082600260200280828437600081840152601f19601f820116905080830192505050505050919291929080604001906002806020026040519081016040528092919082600260200280828437600081840152601f19601f820116905080830192505050505050919291929080604001906002806020026040519081016040528092919082600260200280828437600081840152601f19601f820116905080830192505050505050919291929080604001906002806020026040519081016040528092919082600260200280828437600081840152601f19601f82011690508083019250505050505091929192905050506123eb565b604051808215151515815260200191505060405180910390f35b600060016000837bffffffffffffffffffffffffffffffffffffffffffffffffffffffff19167bffffffffffffffffffffffffffffffffffffffffffffffffffffffff1916815260200190815260200160002060009054906101000a900460ff169050919050565b606060108054600181600116156101000203166002900480601f01602080910402602001604051908101604052809291908181526020018280546001816001161561010002031660029004801561135c5780601f106113315761010080835404028352916020019161135c565b820191906000526020600020905b81548152906001019060200180831161133f57829003601f168201915b5050505050905090565b60006003600083815260200190815260200160002060009054906101000a900473ffffffffffffffffffffffffffffffffffffffff169050919050565b6002600082815260200190815260200160002060009054906101000a900473ffffffffffffffffffffffffffffffffffffffff1673ffffffffffffffffffffffffffffffffffffffff168273ffffffffffffffffffffffffffffffffffffffff161415611478576040517f08c379a00000000000000000000000000000000000000000000000000000000081526004018080602001828103825260138152602001807f43616e277420626520746865206f776e6572210000000000000000000000000081525060200191505060405180910390fd5b6002600082815260200190815260200160002060009054906101000a900473ffffffffffffffffffffffffffffffffffffffff1673ffffffffffffffffffffffffffffffffffffffff163373ffffffffffffffffffffffffffffffffffffffff16148061151e575061151d6002600083815260200190815260200160002060009054906101000a900473ffffffffffffffffffffffffffffffffffffffff16336121ce565b5b611573576040517f08c379a0000000000000000000000000000000000000000000000000000000008152600401808060200182810382526022815260200180614c786022913960400191505060405180910390fd5b816003600083815260200190815260200160002060006101000a81548173ffffffffffffffffffffffffffffffffffffffff021916908373ffffffffffffffffffffffffffffffffffffffff160217905550808273ffffffffffffffffffffffffffffffffffffffff166002600084815260200190815260200160002060009054906101000a900473ffffffffffffffffffffffffffffffffffffffff1673ffffffffffffffffffffffffffffffffffffffff167f8c5be1e5ebec7d5bd14f71427d1e84f3dd0314c0f7b2291e5b200ac8c7c3b92560405160405180910390a45050565b6000809054906101000a900473ffffffffffffffffffffffffffffffffffffffff1673ffffffffffffffffffffffffffffffffffffffff163373ffffffffffffffffffffffffffffffffffffffff1614611719576040517f08c379a000000000000000000000000000000000000000000000000000000000815260040180806020018281038252601c8152602001807f43616c6c6572206973206e6f7420636f6e7472616374206f776e65720000000081525060200191505060405180910390fd5b80600060146101000a81548160ff02191690831515021790555050565b6000600880549050905090565b61174d3382612772565b61175657600080fd5b611761838383612807565b505050565b6117a5828260006040519080825280601f01601f19166020018201604052801561179f5781602001600182028038833980820191505090505b5061181c565b5050565b60006117b483611993565b82106117bf57600080fd5b600660008473ffffffffffffffffffffffffffffffffffffffff1673ffffffffffffffffffffffffffffffffffffffff168152602001908152602001600020828154811061180957fe5b9060005260206000200154905092915050565b505050565b60008060009054906101000a900473ffffffffffffffffffffffffffffffffffffffff1673ffffffffffffffffffffffffffffffffffffffff163373ffffffffffffffffffffffffffffffffffffffff16146118e5576040517f08c379a000000000000000000000000000000000000000000000000000000000815260040180806020018281038252601c8152602001807f43616c6c6572206973206e6f7420636f6e7472616374206f776e65720000000081525060200191505060405180910390fd5b6118ef838361282b565b6118f88261284c565b6001905092915050565b61191d83838360405180602001604052806000815250611ce2565b505050565b600061192c611736565b821061193757600080fd5b6008828154811061194457fe5b90600052602060002001549050919050565b60006002600083815260200190815260200160002060009054906101000a900473ffffffffffffffffffffffffffffffffffffffff169050919050565b60006119dc600460008473ffffffffffffffffffffffffffffffffffffffff1673ffffffffffffffffffffffffffffffffffffffff1681526020019081526020016000206129a3565b9050919050565b60405180604001604052808381526020018473ffffffffffffffffffffffffffffffffffffffff16815250601560008381526020019081526020016000206000820151816000015560208201518160010160006101000a81548173ffffffffffffffffffffffffffffffffffffffff021916908373ffffffffffffffffffffffffffffffffffffffff1602179055509050507f209e782baeeecf4956303cb3e836fdf3f7279e6729ebccf2d309c292aedd3aeb83604051808273ffffffffffffffffffffffffffffffffffffffff1673ffffffffffffffffffffffffffffffffffffffff16815260200191505060405180910390a1505050565b60008060009054906101000a900473ffffffffffffffffffffffffffffffffffffffff16905090565b606060118054600181600116156101000203166002900480601f016020809104026020016040519081016040528092919081815260200182805460018160011615610100020316600290048015611b9e5780601f10611b7357610100808354040283529160200191611b9e565b820191906000526020600020905b815481529060010190602001808311611b8157829003601f168201915b5050505050905090565b3373ffffffffffffffffffffffffffffffffffffffff168273ffffffffffffffffffffffffffffffffffffffff161415611be157600080fd5b80600560003373ffffffffffffffffffffffffffffffffffffffff1673ffffffffffffffffffffffffffffffffffffffff16815260200190815260200160002060008473ffffffffffffffffffffffffffffffffffffffff1673ffffffffffffffffffffffffffffffffffffffff16815260200190815260200160002060006101000a81548160ff0219169083151502179055508173ffffffffffffffffffffffffffffffffffffffff163373ffffffffffffffffffffffffffffffffffffffff167f17307eab39ab6107e8899845ad3d59bd9653f200f220920489ca2b5937696c3183604051808215151515815260200191505060405180910390a35050565b611ced848484611743565b611cf9848484846129b1565b611d0257600080fd5b50505050565b6060611d1382612b9a565b611d1c57600080fd5b601360008381526020019081526020016000208054600181600116156101000203166002900480601f016020809104026020016040519081016040528092919081815260200182805460018160011615610100020316600290048015611dc35780601f10611d9857610100808354040283529160200191611dc3565b820191906000526020600020905b815481529060010190602001808311611da657829003601f168201915b50505050509050919050565b6000611de28a8a8a8a8a8a8a8a8a6123eb565b611e54576040517f08c379a00000000000000000000000000000000000000000000000000000000081526004018080602001828103825260198152602001807f736f6c7574696f6e206973206e6f742076616c5f696e6465780000000000000081525060200191505060405180910390fd5b60008a8a8a8a8a8a8a8a8a604051602001808a600260200280838360005b83811015611e8d578082015181840152602081019050611e72565b5050505090500189600260200280838360005b83811015611ebb578082015181840152602081019050611ea0565b505050509050018860026000925b81841015611f0f5782846020020151600260200280838360005b83811015611efe578082015181840152602081019050611ee3565b505050509050019260010192611ec9565b9250505087600260200280838360005b83811015611f3a578082015181840152602081019050611f1f565b5050505090500186600260200280838360005b83811015611f68578082015181840152602081019050611f4d565b5050505090500185600260200280838360005b83811015611f96578082015181840152602081019050611f7b565b5050505090500184600260200280838360005b83811015611fc4578082015181840152602081019050611fa9565b5050505090500183600260200280838360005b83811015611ff2578082015181840152602081019050611fd7565b5050505090500182600260200280838360005b83811015612020578082015181840152602081019050612005565b505050509050019950505050505050505050604051602081830303815290604052805190602001209050600073ffffffffffffffffffffffffffffffffffffffff166015600083815260200190815260200160002060010160009054906101000a900473ffffffffffffffffffffffffffffffffffffffff1673ffffffffffffffffffffffffffffffffffffffff1614612105576040517f08c379a0000000000000000000000000000000000000000000000000000000008152600401808060200182810382526021815260200180614c356021913960400191505060405180910390fd5b6121108d8d836119e3565b61211a8d8d611821565b9150509b9a5050505050505050505050565b606060128054600181600116156101000203166002900480601f0160208091040260200160405190810160405280929190818152602001828054600181600116156101000203166002900480156121c45780601f10612199576101008083540402835291602001916121c4565b820191906000526020600020905b8154815290600101906020018083116121a757829003601f168201915b5050505050905090565b6000600560008473ffffffffffffffffffffffffffffffffffffffff1673ffffffffffffffffffffffffffffffffffffffff16815260200190815260200160002060008373ffffffffffffffffffffffffffffffffffffffff1673ffffffffffffffffffffffffffffffffffffffff16815260200190815260200160002060009054906101000a900460ff16905092915050565b6000809054906101000a900473ffffffffffffffffffffffffffffffffffffffff1673ffffffffffffffffffffffffffffffffffffffff163373ffffffffffffffffffffffffffffffffffffffff1614612324576040517f08c379a000000000000000000000000000000000000000000000000000000000815260040180806020018281038252601c8152602001807f43616c6c6572206973206e6f7420636f6e7472616374206f776e65720000000081525060200191505060405180910390fd5b806000806101000a81548173ffffffffffffffffffffffffffffffffffffffff021916908373ffffffffffffffffffffffffffffffffffffffff1602179055507fa2ea9883a321a3e97b8266c2b078bfeec6d50c711ed71f874a90d500ae2eaf366000809054906101000a900473ffffffffffffffffffffffffffffffffffffffff16604051808273ffffffffffffffffffffffffffffffffffffffff1673ffffffffffffffffffffffffffffffffffffffff16815260200191505060405180910390a150565b60006123f5614955565b60405180604001604052808c60006002811061240d57fe5b602002015181526020018c60016002811061242457fe5b6020020151815250816000018190525060405180604001604052808b60006002811061244c57fe5b602002015181526020018b60016002811061246357fe5b60200201518152508160200181905250604051806040016040528060405180604001604052808c60006002811061249657fe5b60200201516000600281106124a757fe5b602002015181526020018c6000600281106124be57fe5b60200201516001600281106124cf57fe5b6020020151815250815260200160405180604001604052808c6001600281106124f457fe5b602002015160006002811061250557fe5b602002015181526020018c60016002811061251c57fe5b602002015160016002811061252d57fe5b6020020151815250815250816040018190525060405180604001604052808960006002811061255857fe5b602002015181526020018960016002811061256f57fe5b6020020151815250816060018190525060405180604001604052808860006002811061259757fe5b60200201518152602001886001600281106125ae57fe5b602002015181525081608001819052506040518060400160405280876000600281106125d657fe5b60200201518152602001876001600281106125ed57fe5b60200201518152508160a0018190525060405180604001604052808660006002811061261557fe5b602002015181526020018660016002811061262c57fe5b60200201518152508160e0018190525060405180604001604052808560006002811061265457fe5b602002015181526020018560016002811061266b57fe5b60200201518152508160c00181905250606060026040519080825280602002602001820160405280156126ad5781602001602082028038833980820191505090505b50905060008090505b60028110156126f5578481600281106126cb57fe5b60200201518282815181106126dc57fe5b60200260200101818152505080806001019150506126b6565b5060006127028284612c0c565b141561275e577f3f3cfdb26fb5f9f1786ab4f1a1f9cd4c0b5e726cbdfc26e495261731aad44e39604051808060200182810382526022815260200180614c566022913960400191505060405180910390a1600192505050612765565b6000925050505b9998505050505050505050565b60008061277e83611956565b90508073ffffffffffffffffffffffffffffffffffffffff168473ffffffffffffffffffffffffffffffffffffffff1614806127ed57508373ffffffffffffffffffffffffffffffffffffffff166127d584611366565b73ffffffffffffffffffffffffffffffffffffffff16145b806127fe57506127fd81856121ce565b5b91505092915050565b612812838383612e34565b61281c83826130ac565b612826828261324a565b505050565b6128358282613311565b61283f828261324a565b61284881613529565b5050565b61285581612b9a565b6128c7576040517f08c379a00000000000000000000000000000000000000000000000000000000081526004018080602001828103825260108152602001807f546f6b656e206d7573742065786973740000000000000000000000000000000081525060200191505060405180910390fd5b60606128d282613575565b905061297860128054600181600116156101000203166002900480601f01602080910402602001604051908101604052809291908181526020018280546001816001161561010002031660029004801561296d5780601f106129425761010080835404028352916020019161296d565b820191906000526020600020905b81548152906001019060200180831161295057829003601f168201915b5050505050826136a2565b60136000848152602001908152602001600020908051906020019061299e9291906149ca565b505050565b600081600001549050919050565b60006129d28473ffffffffffffffffffffffffffffffffffffffff166136e6565b6129df5760019050612b92565b60008473ffffffffffffffffffffffffffffffffffffffff1663150b7a02338887876040518563ffffffff1660e01b8152600401808573ffffffffffffffffffffffffffffffffffffffff1673ffffffffffffffffffffffffffffffffffffffff1681526020018473ffffffffffffffffffffffffffffffffffffffff1673ffffffffffffffffffffffffffffffffffffffff16815260200183815260200180602001828103825283818151815260200191508051906020019080838360005b83811015612aba578082015181840152602081019050612a9f565b50505050905090810190601f168015612ae75780820380516001836020036101000a031916815260200191505b5095505050505050602060405180830381600087803b158015612b0957600080fd5b505af1158015612b1d573d6000803e3d6000fd5b505050506040513d6020811015612b3357600080fd5b8101908080519060200190929190505050905063150b7a0260e01b7bffffffffffffffffffffffffffffffffffffffffffffffffffffffff1916817bffffffffffffffffffffffffffffffffffffffffffffffffffffffff1916149150505b949350505050565b6000806002600084815260200190815260200160002060009054906101000a900473ffffffffffffffffffffffffffffffffffffffff169050600073ffffffffffffffffffffffffffffffffffffffff168173ffffffffffffffffffffffffffffffffffffffff161415915050919050565b6000612c16614a4a565b612c1e613731565b90508060e0015151600185510114612c3557600080fd5b612c3d614ab9565b6040518060400160405280600081526020016000815250905060008090505b8551811015612cb457612ca582612ca08560e001516001850181518110612c7f57fe5b6020026020010151898581518110612c9357fe5b6020026020010151613d66565b613dfa565b91508080600101915050612c5c565b50612cd7818360e00151600081518110612cca57fe5b6020026020010151613dfa565b9050612d0084600001518360000151612cf38760200151613ead565b612cfb613f47565b614011565b612d0f57600192505050612e2e565b612d3682602001518560400151612d298760600151613ead565b612d31613f47565b614011565b612d4557600292505050612e2e565b612d6c84608001518360400151612d5f8760a00151613ead565b612d67613f47565b614011565b612d7b57600392505050612e2e565b612dc78460c001518360600151612dab612da685612da18a600001518b60800151613dfa565b613dfa565b613ead565b8560a00151612dbd8760800151613ead565b896040015161410d565b612dd657600492505050612e2e565b612e18612de7828660000151613dfa565b8560400151612df98760e00151613ead565b8560c00151612e0b8960800151613ead565b612e13613f47565b61410d565b612e2757600592505050612e2e565b6000925050505b92915050565b612e3d81611956565b73ffffffffffffffffffffffffffffffffffffffff168373ffffffffffffffffffffffffffffffffffffffff1614612ec0576040517f08c379a0000000000000000000000000000000000000000000000000000000008152600401808060200182810382526022815260200180614c136022913960400191505060405180910390fd5b600073ffffffffffffffffffffffffffffffffffffffff168273ffffffffffffffffffffffffffffffffffffffff161415612f63576040517f08c379a00000000000000000000000000000000000000000000000000000000081526004018080602001828103825260198152602001807f5468652061646472657373206973206e6f742076616c6964210000000000000081525060200191505060405180910390fd5b612f6c8161423d565b612fb3600460008473ffffffffffffffffffffffffffffffffffffffff1673ffffffffffffffffffffffffffffffffffffffff1681526020019081526020016000206142fb565b612ffa600460008573ffffffffffffffffffffffffffffffffffffffff1673ffffffffffffffffffffffffffffffffffffffff168152602001908152602001600020614311565b816002600083815260200190815260200160002060006101000a81548173ffffffffffffffffffffffffffffffffffffffff021916908373ffffffffffffffffffffffffffffffffffffffff160217905550808273ffffffffffffffffffffffffffffffffffffffff168473ffffffffffffffffffffffffffffffffffffffff167fddf252ad1be2c89b69c2b068fc378daa952ba7f163c4a11628f55a4df523b3ef60405160405180910390a4505050565b60006131046001600660008673ffffffffffffffffffffffffffffffffffffffff1673ffffffffffffffffffffffffffffffffffffffff1681526020019081526020016000208054905061433490919063ffffffff16565b90506000600760008481526020019081526020016000205490508181146131f1576000600660008673ffffffffffffffffffffffffffffffffffffffff1673ffffffffffffffffffffffffffffffffffffffff168152602001908152602001600020838154811061317157fe5b9060005260206000200154905080600660008773ffffffffffffffffffffffffffffffffffffffff1673ffffffffffffffffffffffffffffffffffffffff16815260200190815260200160002083815481106131c957fe5b9060005260206000200181905550816007600083815260200190815260200160002081905550505b600660008573ffffffffffffffffffffffffffffffffffffffff1673ffffffffffffffffffffffffffffffffffffffff1681526020019081526020016000208054809190600190036132439190614ad3565b5050505050565b600660008373ffffffffffffffffffffffffffffffffffffffff1673ffffffffffffffffffffffffffffffffffffffff168152602001908152602001600020805490506007600083815260200190815260200160002081905550600660008373ffffffffffffffffffffffffffffffffffffffff1673ffffffffffffffffffffffffffffffffffffffff1681526020019081526020016000208190806001815401808255809150509060018203906000526020600020016000909192909190915055505050565b600073ffffffffffffffffffffffffffffffffffffffff168273ffffffffffffffffffffffffffffffffffffffff1614156133b4576040517f08c379a00000000000000000000000000000000000000000000000000000000081526004018080602001828103825260128152602001807f41646472657373206e6f742076616c696421000000000000000000000000000081525060200191505060405180910390fd5b6133bd81612b9a565b15613430576040517f08c379a00000000000000000000000000000000000000000000000000000000081526004018080602001828103825260148152602001807f546f6b656e20616c72656164792065786973747300000000000000000000000081525060200191505060405180910390fd5b816002600083815260200190815260200160002060006101000a81548173ffffffffffffffffffffffffffffffffffffffff021916908373ffffffffffffffffffffffffffffffffffffffff1602179055506134c9600460008473ffffffffffffffffffffffffffffffffffffffff1673ffffffffffffffffffffffffffffffffffffffff1681526020019081526020016000206142fb565b808273ffffffffffffffffffffffffffffffffffffffff16600073ffffffffffffffffffffffffffffffffffffffff167fddf252ad1be2c89b69c2b068fc378daa952ba7f163c4a11628f55a4df523b3ef60405160405180910390a45050565b6008805490506009600083815260200190815260200160002081905550600881908060018154018082558091505090600182039060005260206000200160009091929091909150555050565b606060008214156135bd576040518060400160405280600181526020017f3000000000000000000000000000000000000000000000000000000000000000815250905061369d565b600082905060005b600082146135e7578080600101915050600a82816135df57fe5b0491506135c5565b6060816040519080825280601f01601f19166020018201604052801561361c5781602001600182028038833980820191505090505b50905060006001830390505b6000861461369557600a868161363a57fe5b0660300160f81b8282806001900393508151811061365457fe5b60200101907effffffffffffffffffffffffffffffffffffffffffffffffffffffffffffff1916908160001a905350600a868161368d57fe5b049550613628565b819450505050505b919050565b60606136de838360405180602001604052806000815250604051806020016040528060008152506040518060200160405280600081525061437e565b905092915050565b60008060007fc5d2460186f7233c927e7db2dcc703c0e500b653ca82273b7bfad8045d85a47060001b9050833f915080821415801561372857506000801b8214155b92505050919050565b613739614a4a565b604051806040016040528060405180604001604052807f1554453d7f521abc5bcfbc8fb6c0faceadba8b722174cd6124ee930fc2775c5f81526020017f19c2eedccffce0943cb707ac232ac376baf044be89c1209cb94f35fd67fe5d91815250815260200160405180604001604052807f0e422342c45aef1c8643aa1ce980dd647d91c5da8198da425762d609f77f8a4581526020017f0fc486dfc60dfbd1b0fbd0098c172bca6e762167bc33a53417f600f40918a95f815250815250816000018190525060405180604001604052807f05cd3b832758dde3f7cbf941227de3c404facddbed60176682afed1ee7d489a281526020017f2732054b5e4e7e47d6aaea912bd9d90bb296780dd74fc312208bb4c3c5444d7d8152508160200181905250604051806040016040528060405180604001604052807f11d4618d62319640129d15bad2b4fa20689848e823db71b352f0abbdf2460bb081526020017f1f3984a98b37b6eeb0313326c6cf74c99a828f7cd0ff83879f0e272657284972815250815260200160405180604001604052807f2be2ae922025a3c7acbdc64e2a6d29bfa018bfd8420813a2603dd53e0103b86981526020017f08262718e6f0720362c2268209114fd181afc36fde29a1419b33cd0c47eee9b98152508152508160400181905250604051806040016040528060405180604001604052807f23721c6c85236c44860d411cc61c0a002ce1467bcfb340828870ddd9059194f681526020017f16f951ec07ceea50be45b42c7892ad1abc20408446a2fbcef7ad6fb2b7ea948a815250815260200160405180604001604052807f15b3c7daa730839a0fd9cd84346dd1f011718c7b3d6b1a1e12dd3452f99df1be81526020017f0ffb8fef4cb5eddd0c3fe8f2346cbdff1e6124a90c485ef7b61c33ba4aa8e88a815250815250816060018190525060405180604001604052807f15599a8db7f0506e2731e5a02fa12835109cc85e6020c7fd69c57980ca20705281526020017f27408fd840a284a2fc67f530a634186595bee43b0bb5f51389b0b6b2e4df54468152508160800181905250604051806040016040528060405180604001604052807f1897aa99b7f7e3e535d389e108b88661195d299ec5e290c3b83a3d31e39362aa81526020017f0c561550d97f667bcad566f2d4853d03b64e43c00d36f717f54b4b7850131d17815250815260200160405180604001604052807f18b5360fed1f24f4f1c5138971bd3f329ba2df3ea7b30a70cc6406c391563c2681526020017f23d20568b634c44edeaba0f4bed82d8d27aadaec31833c912d632424c9e93b948152508152508160a00181905250604051806040016040528060405180604001604052807f296e2da9e95c35b2c208bf008a843d2ef058e6bc386345c10a30242f9d54daa981526020017f1538a5425f94a5cc61ce0f814e2efbd65c6d82ed9ecad115fc1843fee7c730b8815250815260200160405180604001604052807f1b9e40443d2671ba452fb38ef73289202c937531e95fc45c8ee31422aae0279d81526020017f0e5ddd4fffa45a288170a4ea8c69503ade98edabb544a78ee385834f3782f4438152508152508160c001819052506003604051908082528060200260200182016040528015613c0757816020015b613bf4614aff565b815260200190600190039081613bec5790505b508160e0018190525060405180604001604052807f21b2b378642c2e29c093201e73eff047184dcff2dfa5f87fec02b0499dd7d43a81526020017f05355dd4b73f7dc9b5ae213a73bc50c02d445e5c174f56ff2f1c4cce9877f72b8152508160e00151600081518110613c7657fe5b602002602001018190525060405180604001604052807f125939b20a00f0372ccfe9f3b0feab2bb5e1ad54b146f0b8826a1e1cbfb471ea81526020017f2d4e2e569519719fdc8a066e6b22d0c8f0e0a33db5677dc5152c06612eddcafa8152508160e00151600181518110613ce757fe5b602002602001018190525060405180604001604052807f062aa995bccaf8a6c837da9218007ace44e2cf51bdcd695feb53fcd25db2bc5c81526020017f1e820df0d27a41996986fd8599f03f21212a4aa67e2d347a09ed611a729c5df48152508160e00151600281518110613d5857fe5b602002602001018190525090565b613d6e614ab9565b613d76614b19565b836000015181600060038110613d8857fe5b602002018181525050836020015181600160038110613da357fe5b6020020181815250508281600260038110613dba57fe5b6020020181815250506000606083608084600060076107d05a03f190508060008114613de557613de7565bfe5b5080613df257600080fd5b505092915050565b613e02614ab9565b613e0a614b3b565b836000015181600060048110613e1c57fe5b602002018181525050836020015181600160048110613e3757fe5b602002018181525050826000015181600260048110613e5257fe5b602002018181525050826020015181600360048110613e6d57fe5b602002018181525050600060608360c084600060066107d05a03f190508060008114613e9857613e9a565bfe5b5080613ea557600080fd5b505092915050565b613eb5614ab9565b60007f30644e72e131a029b85045b68181585d97816a916871ca8d3c208c16d87cfd47905060008360000151148015613ef2575060008360200151145b15613f16576040518060400160405280600081526020016000815250915050613f42565b60405180604001604052808460000151815260200182856020015181613f3857fe5b0683038152509150505b919050565b613f4f614b5d565b604051806040016040528060405180604001604052807f198e9393920d483a7260bfb731fb5d25f1aa493335a9e71297e485b7aef312c281526020017f1800deef121f1e76426a00665e5c4479674322d4f75edadd46debd5cd992f6ed815250815260200160405180604001604052807f090689d0585ff075ec9e99ad690c3395bc4b313370b38ef355acdadcd122975b81526020017f12c85ea5db8c6deb4aab71808dcb408fe3d1e7690c43d37b4ce6cc0166fa7daa815250815250905090565b60006060600260405190808252806020026020018201604052801561405057816020015b61403d614aff565b8152602001906001900390816140355790505b5090506060600260405190808252806020026020018201604052801561409057816020015b61407d614b83565b8152602001906001900390816140755790505b50905086826000815181106140a157fe5b602002602001018190525084826001815181106140ba57fe5b602002602001018190525085816000815181106140d357fe5b602002602001018190525083816001815181106140ec57fe5b60200260200101819052506141018282614640565b92505050949350505050565b60006060600360405190808252806020026020018201604052801561414c57816020015b614139614aff565b8152602001906001900390816141315790505b5090506060600360405190808252806020026020018201604052801561418c57816020015b614179614b83565b8152602001906001900390816141715790505b509050888260008151811061419d57fe5b602002602001018190525086826001815181106141b657fe5b602002602001018190525084826002815181106141cf57fe5b602002602001018190525087816000815181106141e857fe5b6020026020010181905250858160018151811061420157fe5b6020026020010181905250838160028151811061421a57fe5b602002602001018190525061422f8282614640565b925050509695505050505050565b600073ffffffffffffffffffffffffffffffffffffffff166003600083815260200190815260200160002060009054906101000a900473ffffffffffffffffffffffffffffffffffffffff1673ffffffffffffffffffffffffffffffffffffffff16146142f85760006003600083815260200190815260200160002060006101000a81548173ffffffffffffffffffffffffffffffffffffffff021916908373ffffffffffffffffffffffffffffffffffffffff1602179055505b50565b6001816000016000828254019250508190555050565b6143296001826000015461433490919063ffffffff16565b816000018190555050565b600061437683836040518060400160405280601e81526020017f536166654d6174683a207375627472616374696f6e206f766572666c6f770000815250614895565b905092915050565b6060808690506060869050606086905060608690506060869050606081518351855187518951010101016040519080825280601f01601f1916602001820160405280156143da5781602001600182028038833980820191505090505b509050606081905060008090506000809050600090505b885181101561445f5788818151811061440657fe5b602001015160f81c60f81b83838060010194508151811061442357fe5b60200101907effffffffffffffffffffffffffffffffffffffffffffffffffffffffffffff1916908160001a90535080806001019150506143f1565b600090505b87518110156144d25787818151811061447957fe5b602001015160f81c60f81b83838060010194508151811061449657fe5b60200101907effffffffffffffffffffffffffffffffffffffffffffffffffffffffffffff1916908160001a9053508080600101915050614464565b600090505b8651811015614545578681815181106144ec57fe5b602001015160f81c60f81b83838060010194508151811061450957fe5b60200101907effffffffffffffffffffffffffffffffffffffffffffffffffffffffffffff1916908160001a90535080806001019150506144d7565b600090505b85518110156145b85785818151811061455f57fe5b602001015160f81c60f81b83838060010194508151811061457c57fe5b60200101907effffffffffffffffffffffffffffffffffffffffffffffffffffffffffffff1916908160001a905350808060010191505061454a565b600090505b845181101561462b578481815181106145d257fe5b602001015160f81c60f81b8383806001019450815181106145ef57fe5b60200101907effffffffffffffffffffffffffffffffffffffffffffffffffffffffffffff1916908160001a90535080806001019150506145bd565b82995050505050505050505095945050505050565b6000815183511461465057600080fd5b600083519050600060068202905060608160405190808252806020026020018201604052801561468f5781602001602082028038833980820191505090505b50905060008090505b83811015614835578681815181106146ac57fe5b6020026020010151600001518260006006840201815181106146ca57fe5b6020026020010181815250508681815181106146e257fe5b60200260200101516020015182600160068402018151811061470057fe5b60200260200101818152505085818151811061471857fe5b60200260200101516000015160006002811061473057fe5b602002015182600260068402018151811061474757fe5b60200260200101818152505085818151811061475f57fe5b60200260200101516000015160016002811061477757fe5b602002015182600360068402018151811061478e57fe5b6020026020010181815250508581815181106147a657fe5b6020026020010151602001516000600281106147be57fe5b60200201518260046006840201815181106147d557fe5b6020026020010181815250508581815181106147ed57fe5b60200260200101516020015160016002811061480557fe5b602002015182600560068402018151811061481c57fe5b6020026020010181815250508080600101915050614698565b5061483e614ba9565b60006020826020860260208601600060086107d05a03f19050806000811461486557614867565bfe5b508061487257600080fd5b60008260006001811061488157fe5b602002015114159550505050505092915050565b6000838311158290614942576040517f08c379a00000000000000000000000000000000000000000000000000000000081526004018080602001828103825283818151815260200191508051906020019080838360005b838110156149075780820151818401526020810190506148ec565b50505050905090810190601f1680156149345780820380516001836020036101000a031916815260200191505b509250505060405180910390fd5b5060008385039050809150509392505050565b604051806101000160405280614969614aff565b8152602001614976614aff565b8152602001614983614b83565b8152602001614990614aff565b815260200161499d614aff565b81526020016149aa614aff565b81526020016149b7614aff565b81526020016149c4614aff565b81525090565b828054600181600116156101000203166002900490600052602060002090601f016020900481019282601f10614a0b57805160ff1916838001178555614a39565b82800160010185558215614a39579182015b82811115614a38578251825591602001919060010190614a1d565b5b509050614a469190614bcb565b5090565b604051806101000160405280614a5e614b83565b8152602001614a6b614aff565b8152602001614a78614b83565b8152602001614a85614b83565b8152602001614a92614aff565b8152602001614a9f614b83565b8152602001614aac614b83565b8152602001606081525090565b604051806040016040528060008152602001600081525090565b815481835581811115614afa57818360005260206000209182019101614af99190614bcb565b5b505050565b604051806040016040528060008152602001600081525090565b6040518060600160405280600390602082028038833980820191505090505090565b6040518060800160405280600490602082028038833980820191505090505090565b6040518060400160405280614b70614bf0565b8152602001614b7d614bf0565b81525090565b6040518060400160405280614b96614bf0565b8152602001614ba3614bf0565b81525090565b6040518060200160405280600190602082028038833980820191505090505090565b614bed91905b80821115614be9576000816000905550600101614bd1565b5090565b90565b604051806040016040528060029060208202803883398082019150509050509056fe596f75206d75737420626520746865206f776e6572206f662074686520746f6b656e54686520736f6c7574696f6e207761732070726576696f75736c7920757365642e5472616e73616374696f6e207375636365737366756c6c792076657269666965642e4e6f7420617070726f76656420746f2063616c6c20746869732066756e6374696f6ea265627a7a72315820b9f0899668e7badbdfb54136f690f2da5b5aa31ff913849d5504c275d9f6c7b364736f6c6343000510003268747470733a2f2f73332d75732d776573742d322e616d617a6f6e6177732e636f6d2f756461636974792d626c6f636b636861696e2f63617073746f6e652f",
  "source": "pragma solidity ^0.5.0;\n\n// TODO define a contract call to the zokrates generated solidity contract <Verifier> or <renamedVerifier>\nimport \"./ERC721Mintable.sol\";\nimport \"./verifier.sol\";\n\n// TODO define another contract named SolnSquareVerifier that inherits from your ERC721Mintable class\ncontract SolnSquareVerifier is Verifier, RealEstateRMERC721Token {\n\n    Verifier contractVerifier;\n\n    constructor( \n                address contractAddress  \n                )  \n                public\n    {\n         contractVerifier = Verifier(contractAddress);\n    }\n\n// TODO define a solutions struct that can hold an index & an address\n    struct Solution {\n        uint _index;\n        address _address;\n    }\n\n\n// TODO define an array of the above struct\n\n// TODO define a mapping to store unique solutions submitted\n    mapping(bytes32 => Solution) private solutions;\n\n\n\n// TODO Create an event to emit when a solution is added\n    event SolutionAdded(address solution);\n\n\n\n// TODO Create a function to add the solutions to the array and emit the event\n   function addSolution(address _address, uint256 _index, bytes32 solutionHash) public {\n        solutions[solutionHash] = Solution({\n                                        _index: _index,\n                                        _address: _address\n                                });\n         emit SolutionAdded(_address);\n    }\n\n\n\n// TODO Create a function to mint new NFT only after the solution has been verified\n//  - make sure the solution is unique (has not been used before)\n//  - make sure you handle metadata as well as tokenSuplly\n\n  function mintNewNFT(address _address, uint _index,\n             uint[2] memory a,\n             uint[2] memory a_p,\n             uint[2][2] memory b,\n             uint[2] memory b_p,\n             uint[2] memory c,\n             uint[2] memory c_p,\n             uint[2] memory h,\n             uint[2] memory k,\n             uint[2] memory input\n        ) public returns (bool) {\n\n        require(verifyTx(a, a_p,b, b_p, c, c_p, h, k, input), \"solution is not val_index\");\n        bytes32 solutionHash = keccak256(abi.encodePacked(a, a_p,b, b_p, c, c_p, h, k, input));\n        require(solutions[solutionHash]._address == address(0), \"The solution was previously used.\");\n        addSolution(_address,_index,solutionHash);\n        return mint(_address, _index);\n    }\n\n}\n\n\n\n\n\n\n\n\n\n\n\n\n\n\n\n\n\n\n\n\n\n\n\n\n\n\n",
  "sourcePath": "C:\\Users\\Rafael Muraro\\OneDrive\\Documentos\\cursos\\bitcoin\\project5\\Blockchain-Capstone-master\\Blockchain-Capstone-master\\eth-contracts\\contracts\\SolnSquareVerifier.sol",
  "compiler": {
    "name": "solc",
    "version": "0.5.16+commit.9c3226ce.Emscripten.clang"
  },
  "schemaVersion": "3.0.23",
  "updatedAt": "2022-05-19T15:08:09.280Z",
  "networkType": "ethereum",
  "devdoc": {
    "methods": {
      "isApprovedForAll(address,address)": {
        "details": "Tells whether an operator is approved by a given owner",
        "params": {
          "operator": "operator address which you want to query the approval of",
          "owner": "owner address which you want to query the approval of"
        },
        "return": "bool whether the given operator is approved by the given owner"
      },
      "setApprovalForAll(address,bool)": {
        "details": "Sets or unsets the approval of a given operator An operator is allowed to transfer all tokens of the sender on their behalf",
        "params": {
          "approved": "representing the status of the approval to be set",
          "to": "operator address to set the approval"
        }
      },
      "supportsInterface(bytes4)": {
        "details": "implement supportsInterface(bytes4) using a lookup table"
      },
      "tokenByIndex(uint256)": {
        "details": "Gets the token ID at a given index of all the tokens in this contract Reverts if the index is greater or equal to the total number of tokens",
        "params": {
          "index": "uint256 representing the index to be accessed of the tokens list"
        },
        "return": "uint256 token ID at the given index of the tokens list"
      },
      "tokenOfOwnerByIndex(address,uint256)": {
        "details": "Gets the token ID at a given index of the tokens list of the requested owner",
        "params": {
          "index": "uint256 representing the index to be accessed of the requested tokens list",
          "owner": "address owning the tokens list to be accessed"
        },
        "return": "uint256 token ID at the given index of the tokens list owned by the requested address"
      },
      "totalSupply()": {
        "details": "Gets the total amount of tokens stored by the contract",
        "return": "uint256 representing the total amount of tokens"
      }
    }
  },
  "userdoc": {
    "methods": {}
  }
}